:020000040000FA
:10000000780200200D030000150300001703000014
:10001000190300001B0300001D0300000000000086
:100020000000000000000000000000001F030000AE
:10003000210300000000000023030000250300004E
:1000400027030000290300002B0300002D030000FC
:100050002F030000310300003303000035030000CC
:1000600037030000390300003B0300003D0300009C
:100070003F0300004103000043030000450300006C
:1000800047030000490300004B0300004D0300003C
:100090004F0300005103000053030000550300000C
:1000A00057030000590300005B0300005D030000DC
:1000B0005F030000610300006303000065030000AC
:1000C00067030000690300006B0300006D0300007C
:1000D0006F0300007103000073030000750300004C
:1000E0007703000079030000000000007B0300009C
:1000F0007D0300007F0300008103000083030000F4
:100100008503000087030000890300008B030000C3
:1001100000000000000000008D0300008F030000BD
:100120009103000093030000950300009703000073
:10013000990300009B0300009D0300009F03000043
:1001400000000000000000000000000000000000AF
:10015000A1030000A3030000A5030000A703000003
:10016000000000000000000000000000000000008F
:10017000000000000000000000000000000000007F
:10018000000000000000000000000000000000006F
:10019000000000000000000000000000000000005F
:1001A000000000000000000000000000000000004F
:1001B000A9030000AB030000AD030000AF03000083
:1001C000B1030000B3030000B5030000B703000053
:1001D000B9030000BB030000BD030000BF03000023
:1001E000C1030000C3030000C503000000000000BD
:1001F00000000000C7030000C9030000CB0300009B
:10020000CD030000CF03000000000000000000004C
:10021000D1030000D3030000D5030000D703000082
:10022000D9030000DB030000DD030000DF03000052
:10023000E1030000E3030000E5030000E703000022
:10024000E9030000EB030000ED030000EF030000F2
:10025000F1030000F3030000F5030000F7030000C2
:10026000F9030000FB030000FD03000000F002F8AA
:1002700000F03CF80AA090E8000C82448344AAF104
:100280000107DA4501D100F031F8AFF2090EBAE802
:100290000F0013F0010F18BFFB1A43F001031847BA
:1002A000500D0000700D0000103A24BF78C878C1CE
:1002B000FAD8520724BF30C830C144BF04680C606C
:1002C000704700000023002400250026103A28BFB4
:1002D00078C1FBD8520728BF30C148BF0B607047B8
:1002E0001FB500F077FE1FBD10B510BD00F09BF8E4
:1002F0001146FFF7F5FF00F051FE00F0B9F803B426
:10030000FFF7F2FF03BC00F0C1F800003F48804750
:100310003F480047FEE7FEE7FEE7FEE7FEE7FEE7B1
:10032000FEE7FEE7FEE7FEE7FEE7FEE7FEE7FEE7A5
:10033000FEE7FEE7FEE7FEE7FEE7FEE7FEE7FEE795
:10034000FEE7FEE7FEE7FEE7FEE7FEE7FEE7FEE785
:10035000FEE7FEE7FEE7FEE7FEE7FEE7FEE7FEE775
:10036000FEE7FEE7FEE7FEE7FEE7FEE7FEE7FEE765
:10037000FEE7FEE7FEE7FEE7FEE7FEE7FEE7FEE755
:10038000FEE7FEE7FEE7FEE7FEE7FEE7FEE7FEE745
:10039000FEE7FEE7FEE7FEE7FEE7FEE7FEE7FEE735
:1003A000FEE7FEE7FEE7FEE7FEE7FEE7FEE7FEE725
:1003B000FEE7FEE7FEE7FEE7FEE7FEE7FEE7FEE715
:1003C000FEE7FEE7FEE7FEE7FEE7FEE7FEE7FEE705
:1003D000FEE7FEE7FEE7FEE7FEE7FEE7FEE7FEE7F5
:1003E000FEE7FEE7FEE7FEE7FEE7FEE7FEE7FEE7E5
:1003F000FEE7FEE7FEE7FEE7FEE7FEE7FEE70000BA
:1004000004480549034A054B70470000090E0000E7
:100410006D020000780000207802002078000020A3
:10042000704770477047754600F02CF8AE460500DF
:100430006946534620F00700854618B020B5FFF7FF
:10044000DFFFBDE820404FF000064FF000074FF0FF
:1004500000084FF0000B21F00701AC46ACE8C009E2
:10046000ACE8C009ACE8C009ACE8C0098D467047EB
:1004700010B50446AFF300802046BDE81040FFF7FA
:100480003EBF0000004870471800002001491820B6
:10049000ABBEFEE7260002007047000070B50025E5
:1004A000002400BF13E004EBC4000B49084480782B
:1004B00008B101250DE004EBC401074A881800F0DB
:1004C00097F805460DB1012503E0601CC4B2022C6B
:1004D000E9DB00BF284670BDDE0F00002DE9F041CA
:1004E00005460E460027002400BF20E004EBC400B0
:1004F00012490844807808B101271AE004EBC400CF
:100500000E490844007AA8420CD104EBC4020B4601
:10051000995C04EBC4021A445078324600F0F4FBB4
:10052000074606E00FB1012703E0601CC4B2022CAD
:10053000DCDB00BF3846BDE8F0810000DE0F0000C4
:100540002DE9FC4104460D4600260027062C1ADA48
:10055000082D18DA8DF801408DF8005002208DF832
:10056000060001208DF807008DF8020000208DF8AC
:1005700005008DF80300684600F03AF8064606B913
:1005800000E0012700E001273846BDE8FC812DE9A5
:10059000F04104460D4600260027062C0BDA082DF4
:1005A00009DA00222946204600F0D8FB064606B9A3
:1005B00002E0012700E001273846BDE8F0812DE97F
:1005C000F04104460D4600260027062C0BDA082DC4
:1005D00009DA01222946204600F0C0FB064606B98A
:1005E00002E0012700E001273846BDE8F081000065
:1005F00010B50146002009B9012081E34A78062A96
:100600007DDA4A78FB4B9A5C5AB9FB4A12684C78FF
:100610000123A3401A43F84B1A6001224B78F54C92
:10062000E2540A78082A6BDA8A78002A69D0012A0B
:1006300068D14A78042A05DA4A784FF0402303EB60
:10064000023204E04A78121FEC4B03EB0232D2F87C
:1006500000340C780122A24013434A78042A05DAB8
:100660004A784FF0402404EB023204E04A78121F2B
:10067000E24C04EB0232C2F800344A7932B3012A68
:100680004ED14A78042A05DA4A784FF0402303EB2A
:10069000023204E04A78121FD84B03EB0232D2F840
:1006A000FC330C780122A24013434A78042A05DA6D
:1006B0004A784FF0402404EB023204E04A78121FDB
:1006C000CE4C04EB0232C2F8FC332BE04A78042A09
:1006D00005DA4A784FF0402303EB023204E04A780F
:1006E000121FC64B03EB0232D2F8FC330C78012206
:1006F000A24093434A78042A0ADA4A7803E0FEE2E9
:10070000FBE28BE009E24FF0402404EB023204E00C
:100710004A78121FB94C04EB0232C2F8FC3301E0F4
:10072000092000BF00BF8A7922B1012A27D0022AFE
:1007300070D149E04A78042A05DA4A784FF040231C
:1007400003EB023204E04A78121FAC4B03EB023297
:10075000D2F800350C780122A24013434A78042ACB
:1007600005DA4A784FF0402404EB023204E04A787C
:10077000121FA24C04EB0232C2F800354CE04A785A
:10078000042A05DA4A784FF0402303EB023204E0F2
:100790004A78121F994B03EB0232D2F804350C78D9
:1007A0000122A24013434A78042A05DA4A784FF01E
:1007B000402404EB023204E04A78121F8F4C04EB11
:1007C0000232C2F8043527E04A78042A05DA4A786A
:1007D0004FF0402303EB023204E04A78121F874BAC
:1007E00003EB0232D2F808350C780122A240134301
:1007F0004A78042A05DA4A784FF0402404EB0232A2
:1008000004E04A78121F7D4C04EB0232C2F808352E
:1008100002E0FFE7072000BF00BF80E14A78042A1A
:1008200005DA4A784FF0402303EB023204E04A78BD
:10083000121F724B03EB0232D2F800340C78012203
:10084000A24093434A78042A05DA4A784FF04024BC
:1008500004EB023204E04A78121F684C04EB0232C7
:10086000C2F80034CA79002A71D0012A02D0022AC3
:100870006ED16EE04A78042A05DA4A784FF04023B8
:1008800003EB023204E04A78121F5C4B03EB0232A6
:10089000D2F80C350C780122A24093434A78042AFE
:1008A00005DA4A784FF0402404EB023204E04A783B
:1008B000121F524C04EB0232C2F80C354A78042A5B
:1008C00005DA4A784FF0402303EB023204E04A781D
:1008D000121F4A4B03EB0232D2F814350C78012276
:1008E000A24093434A78042A05DA4A784FF040241C
:1008F00004EB023204E04A78121F404C04EB02324F
:10090000C2F814354A78042A05DA4A784FF04023B1
:1009100003EB023204E04A78121F384B03EB023239
:10092000D2F810350C780122A24013434A78042AE9
:1009300005DA4A784FF0402404EB023204E04A78AA
:10094000121F2E4C04EB0232C2F81035E3E073E0C4
:10095000DFE04A78042A05DA4A784FF0402303EBB7
:10096000023204E04A78121F244B03EB0232D2F821
:100970000C350C780122A24093434A78042A05DA08
:100980004A784FF0402404EB023204E04A78121F08
:100990001A4C04EB0232C2F80C354A78042A05DA04
:1009A0004A784FF0402303EB023204E04A78121FEA
:1009B000124B03EB0232D2F810350C780122A24020
:1009C00093434A78042A05DA4A784FF0402404EB2E
:1009D000023204E04A78121F084C04EB0232C2F8DB
:1009E00010354A78042A0BDA4A784FF0402303EB9B
:1009F00002320AE00800002008E60F4000400240F2
:100A00004A78121FBF4B03EB0232D2F814350C7830
:100A10000122A24013434A78042A05DA4A784FF0AB
:100A2000402404EB023204E04A78121FB54C04EB78
:100A30000232C2F814356EE04A78042A05DA4A78A0
:100A40004FF0402303EB023204E04A78121FAD4B13
:100A500003EB0232D2F814350C780122A240934302
:100A60004A78042A05DA4A784FF0402404EB02322F
:100A700004E04A78121FA34C04EB0232C2F814358A
:100A80004A78042A05DA4A784FF0402303EB023211
:100A900004E04A78121F9B4B03EB0232D2F8103568
:100AA0000C780122A24093434A78042A05DA4A7856
:100AB0004FF0402404EB023204E04A78121F914CBC
:100AC00004EB0232C2F810354A78042A05DA4A7873
:100AD0004FF0402303EB023204E04A78121F894BA7
:100AE00003EB0232D2F80C350C780122A2401343FA
:100AF0004A78042A05DA4A784FF0402404EB02329F
:100B000004E04A78121F7F4C04EB0232C2F80C3525
:100B100001E0082000BF00BF01E0042000BF00BFCB
:100B20000A7912B1012A4AD124E04A78042A05DA66
:100B30004A784FF0402303EB023204E04A78121F58
:100B4000704B03EB0232D2F820340C780122A24021
:100B500093434A78042A05DA4A784FF0402404EB9C
:100B6000023204E04A78121F664C04EB0232C2F8EB
:100B7000203426E04A78042A05DA4A784FF04023E8
:100B800003EB023204E04A78121F5E4B03EB0232A1
:100B9000D2F820340C780122A24013434A78042A68
:100BA00005DA4A784FF0402404EB023204E04A7838
:100BB000121F544C04EB0232C2F8203401E006202C
:100BC00000BF00BFCA7812B1012A76D148E04A7846
:100BD000042A05DA4A784FF0402303EB023204E09E
:100BE0004A78121F474B03EB0232D2F828350C78B3
:100BF0000122A24093434A78042A05DA4A784FF04A
:100C0000402404EB023204E04A78121F3D4C04EB0E
:100C10000232C2F828354A78042A05DA4A784FF0B9
:100C2000402303EB023204E04A78121F354B03EBFA
:100C30000232D2F81C350C780122A24013434A78C4
:100C4000042A05DA4A784FF0402404EB023204E02B
:100C50004A78121F2B4C04EB0232C2F81C354BE0D1
:100C60004A78042A05DA4A784FF0402303EB02322F
:100C700004E04A78121F234B03EB0232D2F81C35F2
:100C80000C780122A24093434A78042A05DA4A7874
:100C90004FF0402404EB023204E04A78121F194C52
:100CA00004EB0232C2F81C354A78042A06DA4A7884
:100CB0004FF0402303EB023205E01BE04A78121F9D
:100CC000104B03EB0232D2F828350C780122A240F7
:100CD00013434A78042A05DA4A784FF0402404EB9B
:100CE000023204E04A78121F064C04EB0232C2F8CA
:100CF000283501E0052000BF02E0032000E00220CB
:100D000010BD00000040024030B503460020062B15
:100D10001EDA104CE45C012C18D1082914DA8AB1CF
:100D2000042B04DA4FF0402404EB033403E01C1FCF
:100D3000094D05EB0434D4F8FC43CC4004F0010425
:100D4000147006E0012004E0032002E00B2000E024
:100D5000022030BD080000200040024070B503466C
:100D60000020062B4ADA264CE45C012C44D10829E9
:100D700040DA012A1DD1042B04DA4FF0402404EBA1
:100D8000033403E01C1F1F4D05EB0434D4F8FC535F
:100D900001248C402543042B04DA4FF0402404EB5B
:100DA000033403E01C1F174E06EB0434C4F8FC5355
:100DB00025E0EAB9042B04DA4FF0402404EB0334B5
:100DC00003E01C1F0F4D05EB0434D4F8FC53012441
:100DD0008C40A543042B04DA4FF0402404EB033489
:100DE00003E01C1F074E06EB0434C4F8FC5306E076
:100DF000092004E0032002E00B2000E0022070BD87
:100E000008000020004002401B49096841F47001BD
:100E1000194A116019491A4A11671A4911661A4983
:100E200011661A491167002000E0401CB0F57A7F76
:100E3000FBD31749124A116616491167002000E0DA
:100E4000401CB0F57A7FFBD313490D4A116600BFF1
:100E50000B49096D01F040014029F9D10F49084AB9
:100E600011664FF0C0711167002000E0401C42F293
:100E700010718842FAD3704788ED00E0102880078F
:100E800000E00F40D13A8E07422D9E0100288001DC
:100E9000420D9E0100088001420DDE014205DE0187
:100EA00008B50120009065E069460120FFF716FBB8
:100EB0009DF8000078B903E069460120FFF70EFBBA
:100EC0009DF800000028F7D000F070F82A4800785C
:100ED000401C2949087028480078052845D2DFE8D9
:100EE00000F003101D2A370001210520FFF74FFBFA
:100EF00003210520FFF74BFB02210520FFF747FBED
:100F000037E001210520FFF75AFB03210520FFF7F9
:100F10003EFB02210520FFF73AFB2AE001210520D4
:100F2000FFF735FB03210520FFF749FB02210520D0
:100F3000FFF72DFB1DE001210520FFF728FB032112
:100F40000520FFF724FB02210520FFF738FB10E006
:100F500001210520FFF733FB03210520FFF72FFBBD
:100F600002210520FFF72BFB03E000200249087057
:100F700000BF00BF98E700000000002010B501216D
:100F80000520FFF7DDFA03210520FFF7D9FA02213A
:100F90000520FFF7D5FAFFF781FA10BD10B5FFF76E
:100FA000EDFFFFF77DFF002010BD00000020074986
:100FB000086004E005480068401C044908600348D4
:100FC000006803498842F5D3704700000400002000
:100FD000A08601004FF04070E1EE100A7047040552
:100FE00000000000000101000500000000000102F7
:100FF000101000000000002018000000A8020000EF
:10100000281000001800002060020000C402000048
:1010100000000000000000000000000000000000D0
:081020000000000000000000C8
:040000050000030DE7
:00000001FF
